:10000000F8FF022099010000053F0000BD3E0000FE
:10001000BD3E0000BD3E0000BD3E0000BD3E0000F4
:10002000BD3E0000BD3E0000BD3E0000053F00009B
:10003000053F0000BD3E0000093A00000D3B0000F6
:10004000053F0000053F0000053F0000053F0000A0
:10005000053F0000053F0000053F0000053F000090
:10006000053F0000053F0000053F0000053F000080
:10007000053F0000053F0000053F0000053F000070
:10008000053F0000053F0000053F0000053F000060
:10009000053F0000053F0000053F0000053F000050
:1000A000053F0000053F0000053F0000053F000040
:1000B000053F0000053F0000053F000079550000A6
:1000C000053F0000A5560000053F0000D157000085
:1000D000053F0000C9580000053F0000053F000033
:1000E000053F0000053F0000053F0000053F000000
:1000F000053F0000053F0000053F0000053F0000F0
:10010000053F0000053F0000053F0000053F0000DF
:10011000053F000059440000053F0000053F000076
:10012000053F0000053F0000053F0000053F0000BF
:10013000053F0000053F0000053F0000053F0000AF
:10014000053F0000053F0000C1590000053F0000C9
:10015000B95A0000053F0000053F0000053F0000C0
:10016000053F0000053F0000053F0000053F00007F
:10017000053F0000053F0000053F0000053F00006F
:10018000053F0000053F0000053F0000053F00005F
:10019000053F0000053F0000584B4CF2205210B5BF
:1001A0001A804DF628121A8000BF00BF03F0AEFE81
:1001B000534B4FF030621A60524A9A60524ADA60EA
:1001C000524B4FF470021A60514A136813F4807353
:1001D00004D150490B604FF4A85313604E4B1A786A
:1001E000110703D51A7842F008021A704B4B4C499C
:1001F0002A221A704B4A4C4B8B4204D252F8040FFD
:1002000043F8040BF8E7494B494900228B4202D2DC
:1002100043F8042BFAE74749474A002352F82300E2
:1002200041F823000133662BF8D1444B444A802126
:1002300003F8011B9342FBD1424B3E4A1A60424BEA
:100240008A221A70A3F5805324225A70A0221A70B1
:100250009A799207FCD59A79D406FCD43B4A9379D3
:1002600003F00C03082B394BF9D103221A714622F3
:100270005A719A799006FCD5344A9179334B4906E4
:10028000FBD5334A4FF08271116009215160202261
:100290001A709A7902F00C020C2AFAD12D4B2E4AD0
:1002A0001A602E4B2E4A1A6000225A60072243F829
:1002B000042C2C4AC3F80C2D62B603F05FFF154BDB
:1002C0001B68DA0705D5284803F0CAFE274B284AE1
:1002D0001A60284B1B785B0609D5244C244B2268F6
:1002E0009A4204D1204803F0BBFE0023236006F0AD
:1002F00043FC03F011FE03F03FFDFEE70E20054036
:1003000030800440823F04000100002B88ED00E0B3
:1003100010D0034014D0034002D0074000E0074053
:100320003410FF1F34800000F806FF1F3410FF1F39
:10033000C41BFF1F0002FF1F0000000000E400E0DC
:1003400056E400E008ED00E00050064000400640A2
:100350004480044004800440C010050014E000E024
:10036000BFD4010000002020A7889D5C1CE0034052
:10037000A5C3945A00F00740FFFFFFFFFFFFFFFFF8
:10038000FFFFFFFFFFFFFFFFFFFFFFFFFFFFFFFF7D
:10039000FFFFFFFFFFFFFFFFFFFFFFFFFFFFFFFF6D
:1003A000FFFFFFFFFFFFFFFFFFFFFFFFFFFFFFFF5D
:1003B000FFFFFFFFFFFFFFFFFFFFFFFFFFFFFFFF4D
:1003C000FFFFFFFFFFFFFFFFFFFFFFFFFFFFFFFF3D
:1003D000FFFFFFFFFFFFFFFFFFFFFFFFFFFFFFFF2D
:1003E000FFFFFFFFFFFFFFFFFFFFFFFFFFFFFFFF1D
:1003F000FFFFFFFFFFFFFFFFFFFFFFFFFFFFFFFF0D
:10040000FFFFFFFFFFFFFFFFFFFFFFFFDEF9FFFF23
:1004100010B5054C237833B9044B13B10448AFF33E
:1004200000800123237010BD3410FF1F0000000066
:1004300038800000084B10B51BB108490848AFF3DD
:1004400000800848036803B910BD074B002BFBD0A0
:10045000BDE81040184700BF000000003810FF1F23
:10046000388000003410FF1F0000000043680B704C
:1004700043681B0A4B70C3888B70C379CB70836849
:100480000B7183681B0A4B7143898B71C37ACB71E3
:10049000082070470B7843604A7843EA02234360A0
:1004A0008A7843EA02434360CA7843EA02634360BE
:1004B0000B7983604A7943EA022383608A7943EAAD
:1004C00002438360CA7943EA02638360082070476D
:1004D00000487047347B000000487047447B0000B0
:1004E000F0B50C460A788280064614F8010F002306
:1004F00042EA0022B2801A4614F8010F98400833ED
:10050000202B42EA0002F7D1971D062F58D901F19E
:10051000050E551D73464C1913F8010F03F8010C15
:10052000A342F9D100234B5518460D44C6F808E004
:1005300015F8014F84400830202843EA0403F7D11E
:10054000381D0344834209D909320A440446013460
:1005500012F8015F02F8015CA342F8D80138CF1805
:100560000024084407F8014C2246F06017F8015BAC
:1005700095400832202A44EA0504F7D1181D0444A6
:10058000A04209D203330B440246013213F8015F43
:1005900003F8015CA242F8D30D1901380844002386
:1005A00005F8013C3061A8786B780A5DED780104AC
:1005B00041EA0323134343EA0563201D7361F0BD41
:1005C000551D01F1050EADE700487047687B00003E
:1005D00000487047847B00000B78F0B4037100235F
:1005E00006460C461D4614F8012F9A400833202B6E
:1005F00045EA0205F7D1681D052801F1040708D96D
:100600002C1D3B460C4413F8012F03F8012C9C428F
:10061000F9D10D4400232B71B760F0BC704700BFC7
:1006200000487047A87B000000487047BC7B000072
:1006300000487047187B000000487047E07B0000CE
:1006400043680B7010B4180C1C0A1A0E4C7088709A
:10065000CA7004205DF8044B704700BF0B6843600C
:100660000420704700487047047C00000048704731
:10067000187C0000D0ED017A024BFDEEE77AC3ED65
:10068000007A7047FC16FF1FD0ED017A024BFDEE99
:10069000E77AC3ED007A70470017FF1FD0ED017AAB
:1006A000024BFDEEE77AC3ED007A70475417FF1F47
:1006B0000A68836942611030184700BFC0697047FB
:1006C00000487047047C000000487047187C000018
:1006D00090F8F404704700BF04F0F6BC43682DE9BD
:1006E000F0470B7043681B0A4B70C3888B70C3794B
:1006F000CB704368002B00F085800A460025042655
:10070000C36853F8253013711C0C1F0A1B0E94711B
:100710005771D37143680135AB42344602F104028C
:1007200006F10406ECD804F1080204F1050A04F10C
:10073000060904F1070804F1090C04F10A0E04F19A
:100740000B0517460C3403698B5503691B0A01F826
:100750000A30438A01F80930C37C01F80830036984
:10076000F3B101EB070E75460022836953F822307E
:100770000EF822301C0C1E0A1B0EAC706E70EB7053
:100780000369013293423C4605F1040507F1040771
:10079000EBD804F1050C04F1060EE51D3A460834C9
:1007A000C3698B54C3691B0A01F80C30C38B01F871
:1007B0000E30C37F4B55C3690BB30F4680460026EE
:1007C000D8F8243053F8260006F03AFFB100054669
:1007D0003A19002325FA03F00833202B02F8010B05
:1007E000F8D1D8F824300434381959582A4603F07F
:1007F000CBFAD8F81C300136B3422C44E0D820465E
:10080000BDE8F087082217460C240B254FF00A0E8E
:100810004FF0090C4FF007084FF006094FF0050A9A
:10082000042690E770B503790B70064680680D4684
:1008300006F006FF2A460446002324FA03F1083393
:10084000202B02F8011FF8D1B168681D224603F081
:100850009BFA601D70BD00BFF8B583880B7083885C
:100860001B0A4B70064680680D4606F0E9FE030E33
:10087000010A020C6B71A8702A71E97002460446E5
:10088000B168A81D03F080FAF06806F0D9FE611D7A
:10089000024629440634002322FA03F00833202BB1
:1008A00001F8010FF8D104342819F168144403F059
:1008B0006BFA306906F0C4FE2A190746002327FAAE
:1008C00003F10833202B02F8011BF8D10434281956
:1008D0003A46316903F058FA381973692B540544C4
:1008E000190A1A0C1B0E6970AA70EB700430F8BD5F
:1008F000084604F0D3BC00BF2DE9F04F43680C68F4
:100900009C4283B005460E4600F2B3806C60002C1A
:1009100000F0B88005F1080C334600274FF0040EB4
:100920009C795A79197993F80780E868240444EA95
:1009300002220A4342EA0862AA60DCF8002040F87A
:1009400027206A680137BA42714603F104030EF1A9
:10095000040EE5D801F1080847464B1D881DCA1D45
:1009600001F1090A01F10A0B01F10B0901F10C0473
:10097000305CF35C16F80E1016F802E02A690004E9
:1009800040EA03230B4343EA0E63934200F2908054
:100990002B613BB305F1140CF3194FF0000E9C785A
:1009A0005A78197893F80380A869240444EA02224B
:1009B0000A4342EA08626A61DCF8002040F82E200F
:1009C0002A690EF1010E72453C4603F1040307F15A
:1009D0000407E4D804F1050A04F1060B04F1070941
:1009E000B846083416F80B2016F80A0016F8083036
:1009F00016F80970E969120442EA0022134343EA37
:100A000007678F424ED8EF617FB30027BC4605F1E0
:100A1000200E00231946301910F8012B9A40083394
:100A2000202B41EA0201F7D104F104084144884532
:100A300009D2E31C33444246013213F8010F03F894
:100A4000010C8A42F8D3721808F1FF3802F801CC81
:100A500006EB08032B626A6ADEF8003042F82730A2
:100A6000EB690137BB420C46D3D8204603B0BDE842
:100A7000F08FA100C06806F0D7FB6C60E860002C26
:100A80007FF448AF4FF0080847460C244FF00B099D
:100A90004FF00A0B4FF0090A0722062005234FF0FA
:100AA000040E65E7B900686A06F0BEFB6862AAE753
:100AB0009900A869019306F0B7FB019BA86167E75D
:100AC000F0B585B0364A01920368364D039503228E
:100AD0008DF808201B6834498B425AD100233821F5
:100AE000044680F81F2205F1300E80F8201280F8AD
:100AF000213280F8223280F8233200F509772E4621
:100B00000FCE764538607960BA60FB60354607F1F4
:100B10001007F4D103CD00227960C2234FF0FF0EFD
:100B2000FE263D250721386084F81C3284F818E23F
:100B300084F8196284F81A5284F81B2284F81E2261
:100B400084F81D1204F21D2304F25B2001E013F867
:100B5000011F83420A44FAD1D243144E84F85C2226
:100B600004F2172504F5177703E004F097FBBD4264
:100B70000BD0626815F8011F13681B68B342084662
:100B8000F3D010469847BD42F3D14FF0FF3005B087
:100B9000F0BD01AA072198474FF0FF3005B0F0BD26
:100BA000AC7A00003C7C0000B10B0000F1080000B2
:100BB0002DE9F041632984B003DD90F8F464002E40
:100BC00055D0136805460E4610461B6805F21F21D6
:100BD0009847C2B2C0F307215418E44380B200F230
:100BE0001E234FF0FF0C85F81A224FF0FE0E46F33D
:100BF000072285F81C4205F21D27F4B285F81B1266
:100C000085F81E22E91885F818C285F819E285F8DA
:100C10001D423B46002201E013F8014F9942224455
:100C2000FAD1C31D00F1080615FA83F3B6B2D24318
:100C3000B6F5007F83F818221DD805F50672B6B107
:100C4000771EDFF81081D71905F2172403E004F0AE
:100C500025FBBC420BD06A6814F8011F13681B689F
:100C600043450846F3D010469847BC42F3D130467E
:100C700004B0BDE8F081344A0192344C2B680394EF
:100C800003228DF808201B6831498B4255D100237F
:100C9000382185F81F2204F1300C85F8201285F8E0
:100CA000213285F8223285F8233205F50976A646E9
:100CB000BEE80F00E64530607160B260F3607446D4
:100CC00006F11006F3D103CC002371604FF0FF0C46
:100CD000C2214FF0FE0E3D240722306085F81C1221
:100CE00085F818C285F819E285F81A4285F81B3292
:100CF00085F81E3285F81D2205F25B2101E017F808
:100D0000012F8F421344FAD1DB43DFF8488085F886
:100D10005C3205F2172405F5177603E004F0BEFAFD
:100D2000B4420ED06A6814F8011F13681B6843456B
:100D30000846F3D010469847F2E7284601AA072153
:100D400098474FF0FF3692E7AC7A00003C7C0000F9
:100D5000B10B0000F108000070B51D4C9FED1D0A9D
:100D60001D4E1E4D2DED028B204602F08FFC9FED97
:100D70001C0A9FED1C8A204602F0B4FC00231A4690
:100D80002046012102F0F6FC1421204602F0F0FC7E
:100D900030469FED150A02F079FC30469FED130AAC
:100DA00002F0A0FC1421304602F0E2FCB0EE480A4A
:100DB000284602F06BFC2846B0EE480A02F092FC8E
:100DC000BDEC028B28461421BDE8704002F0D0BC77
:100DD000A010FF1F00401C463411FF1F0417FF1F07
:100DE00000409C46C0E1644B0050C347005043485C
:100DF00010B50C4C204602F0CFFC204602F09AFDC4
:100E000083B207EE903A9FED087A084B084A1880A3
:100E1000F8EEE77A67EE877AFCEEE77A17EE903A1B
:100E2000138010BD7010FF1FD002B43C8811FF1F4B
:100E30003011FF1F10B540F6B83003F051F9FFF73D
:100E40008BFF05213448354C04F0A4F9344802F0F6
:100E500065FE0E21334802F015F9FFF7C9FF0121A5
:100E6000182003F015F90121192003F011F90121CF
:100E70001C2003F00DF901211D2003F009F90121C7
:100E80001A2003F005F901211B2003F001F926487F
:100E900002F0D8FA0146244802F0D6FA002304F5FD
:100EA0008F621146C4F8E034C4F8E434C4F8EC347A
:100EB000C4F8E83402E00133192B0AD051F8040FCA
:100EC0000028F8D104EB83001849C0F87C1464337F
:100ED0004B601749002302E00133192B0AD051F867
:100EE000040F0028F8D104EB83001249C0F87C14E9
:100EF00064334B60002302E00133192B0BD052F80E
:100F0000041F0029F8D104EB83040B4AC4F87C24A5
:100F10006433536010BD10BD787C00008C11FF1F3E
:100F20003807FF1FFC06FF1FA010FF1FF010FF1F58
:100F30000416FF1F1011FF1FBC16FF1FFFFFFFFF4E
:100F400008B527482DED028B02F0F4FC254BDFEDB0
:100F5000266A1B8880B207EE903A07EE100AF8EE78
:100F6000E77AB8EEC77AD7EE267A17EE900A05F040
:100F700089FA9FED191B41EC100B04F047FE51EC70
:100F8000100B05F0A3FD08EE100AB5EEC08AF1EED5
:100F900010FA48BFDFED157A114848BF38EE278AAE
:100FA00002F00AFC20B9B0EE480ABDEC028B08BD85
:100FB0000B4802F0C3FC002301460A220C4802F051
:100FC000BDFD0B4802F0AAFDBDEC028B9FED090AA6
:100FD00008BD00BFAFF30080000000000080764035
:100FE0007010FF1F3011FF1FD002B43C0000B4434B
:100FF0003807FF1F00C079442DE9F04FDFF868B3D0
:10100000CD4C8FB0FFF79CFFDBF800300493CB4A48
:10101000DDF810A0D4F8FC3482ED000AC3EB0A031B
:1010200042F6F822934284BF002384F8F434D4F8C3
:10103000E034C14A33B1D2F800359A4584BF002369
:10104000C2F8E034BE4EBC4D606803685B69B342D1
:1010500040F09D8004F038F80028C0F29C80D4F85D
:10106000F034D4F8E024B44F0344072AC4F8F03431
:1010700075D0002A34D1FF2800F0EB80DBF8003077
:101080000793079BCAEB0303052BDDD987F8F424EC
:101090009FEDAC0AAC4802F02DFB9FEDAA0AAB48CD
:1010A00002F028FB9FEDA70AA94802F023FBA648FF
:1010B00002F0C2F9A54802F0BFF9A54802F0BCF958
:1010C0009E4B186805F0DEF941EC100B0221A14897
:1010D00002F076FD9F4802F021FD0FB0BDE8F08FD1
:1010E000012A00F0BE80022A00F01081032A00F0DD
:1010F0001881042A00F03A81052A00F04681062A68
:1011000000F04B81082A9FD1934A1A4000239A424B
:10111000C4F8E034C0F25581FF2A95D1D4F8E83400
:10112000854F002B00F082820A2B00F04782062BAD
:1011300000F050810B2B00F0498105EB8303D3F8BD
:10114000EC02002880D00368844A1B68934240F078
:101150004C86AA69836942611030984774E7D5F8D4
:10116000EC24D5F8E434A918013B01320876C5F81F
:10117000EC24C5F8E434002B7FF466AF60680823E4
:10118000C4F8E03403685B69B3423FF463AF984747
:101190000028BFF664AF94F8F4346748002B3FF49E
:1011A00077AFD0F8F83440F6C412C3EB0A03934289
:1011B0007FF66EAFFF23FE21002280F8183280F800
:1011C0001912F72308250A2180F81C3280F81F2203
:1011D00080F8202280F8212280F8222280F8232221
:1011E00080F8242280F8252280F8262280F81B220D
:1011F00080F81E2280F81A5280F81D1200F21D237A
:1012000000F2262001E013F8011F98420A44FAD1A7
:10121000534E544DD24384F8272206F10F07FF2086
:1012200005E004F03BF8BE420BD016F8010F6268EF
:1012300013681B68AB420146F3D010469847BE4284
:10124000F3D1DBF800300B930B9BC4F8F8A4E360F8
:101250001EE701220AF11403C5F8E024C5F80035A1
:10126000F2E6FE2800F08D8095F8F4240023C5F8FE
:10127000E034002A7FF4E8AEFF23FE21082085F841
:10128000183285F81912F7230A2185F81C3285F8DF
:101290001F2207F21D2385F8202285F8212285F8D8
:1012A000222285F8232285F8242285F8252285F834
:1012B000262285F81B2285F81E2285F81A0285F859
:1012C0001D1207F2262701E013F8011F9F420A446E
:1012D000FAD1DFF88C80234FD24384F8272208F11B
:1012E0000F09FF2101E018F8011F626813681B68ED
:1012F000BB42084640F07E8503F0D0FFC845F2D1DE
:10130000DBF800300693069BE3609DE60022032392
:10131000C5F8E404C5F8F004C5F8EC24C5F8E034D9
:1013200092E6D5F8E43403EB00200423C5F8E40486
:10133000C5F8E03488E600BF8C11FF1F8411FF1F41
:10134000D906000000000000A010FF1F0417FF1FB7
:101350003411FF1F3807FF1FFF000080B106000097
:10136000A413FF1FF10800007817FF1FD14A1A408D
:10137000002A21DBFF2A0CBF05230023C4F8E03438
:1013800062E60223C5F8E0345EE60623C5F8E80409
:10139000C5F8F004C5F8E03456E6D5F8E834D5F8D9
:1013A000E42403EB00230721C5F8E834C5F8E01472
:1013B000002A3FF4E3AE47E6013A62F0FF02013251
:1013C000D8E7013A62F0FF020132A5E6002385F872
:1013D000F43439E6AF69D5F80C359F4206D9B90027
:1013E000D5F8140505F020FFC5F81405C4F80C75F0
:1013F000002F00F00685B04F042107F5A26C4FF0D6
:10140000000EBB7F787F3A7F1B0443EA0023F87FFE
:10141000134343EA0063C4F81035D4F81435DCF8FC
:10142000000043F82E00D4F80C350EF1010E734580
:101430000A4607F1040701F10401E2D802F10903A9
:1014400002F108098846501D02F10B0102F1060E57
:1014500002F1070C019302F10A030C324F4600918E
:101460000292A644221808EB04019EF8180092F894
:1014700018E0097ED4F81825A44400049CF818C08C
:1014800040EA0E20084340EA0C68904509D94FEA2B
:101490008801D5F82005039305F0C6FE039BC5F827
:1014A0002005C4F81885B8F1000F00F0A784DFF814
:1014B00020E2EA190021937E92F819C0107E1B04E5
:1014C00043EA0C2392F81BC0034343EA0C63CEF8B3
:1014D0000030D4F82035DEF8000043F82100D4F8BD
:1014E000183501318B42384602F1040207F1040736
:1014F000E1D8431DC21DB94601930092831D00F13E
:101500000807019A22442344107E009A197ED4F8D9
:1015100024352244A1449646090499F818209EF8DF
:10152000188041EA00210A4342EA0868984507D931
:101530004FEA8801D5F82C0505F076FEC5F82C0594
:10154000C4F82485B8F1000F34D05C49002201F5BD
:10155000A26C964607F118090023A144984619F891
:10156000010B98400833202B48EA0008F7D1381DBA
:10157000804480450AD907F11B03234407460137FD
:1015800093F8019003F8019BB845F8D804EB0803E1
:10159000013883F817E00844D4F82C35C4F828053E
:1015A000DCF8000043F82200D4F8243501329342DD
:1015B0004746CFD8012384F8043545E5DBF80030F1
:1015C0000893089BEA68DBF800100A913C49E86937
:1015D000DFF800C1DDF828809B1AA1FB031E4FEA4B
:1015E0009E1E4FF47A7184443648AA6901FB1E336B
:1015F00000FB03CC324BA3FB08394FEA9919013A9F
:1016000001FB1981724400FB11C3C9EB020207F10F
:10161000140107F110006B612A6101F019FCDBF87D
:1016200000300993099BC5F8FC340DE5994607F293
:101630001F21254B0B930BA89046CDF83090CDF889
:101640003490FEF713FFC1B2C0F307254B1982B2E5
:10165000DB4387F81A1287F81C3202F21E21FE20A3
:101660000A2387F8188287F81E9287F81B5239449C
:1016700087F8190287F81D3207F21D2701E017F8D5
:10168000013F8F429944FAD1D11D02F1080314FAA7
:1016900081F19BB26FEA0909B3F5007F81F81892D6
:1016A000054828D84BB303F21723084DC61800F29B
:1016B000172715E0FF0000808C11FF1FA411FF1FEA
:1016C000D34D621040420F007C7A0000F108000008
:1016D000A816FF1F00CA9A3B03F0E0FDBE420CD0E3
:1016E000626817F8011F13681B68AB420846F3D005
:1016F00010469847F2E7FFF7E3F9DBF8003005936F
:10170000DFF858B3059BE3600BF164038DE8080430
:101710005BF8043F002B00F03581962002F014FCAA
:10172000DBF800100023037080F895300E79D1F8B3
:101730000CA00F680546002E40F0FE828868036802
:101740004FF001089B689847B14643460278AA5576
:1017500001302E44002A00F0A88205EB090E4B460A
:1017600007E010F8011B0EF8011F002900F09B8212
:1017700013465A1C952AF4D105F19508DBF8003080
:1017800098680368DB689847DBF80030D3F814905A
:10179000B9F1630F04DD94F8F434002B00F0EE800F
:1017A000CAF30723384684F81FA284F8203205F0D4
:1017B00047FF8246020A000C4FEA1A63394684F852
:1017C000222284F8230252469D4884F8243284F869
:1017D00021A202F0D9FA304605F032FF02460AF2A1
:1017E000252020440AF10603002122FA01F70831DE
:1017F000202900F8017BF8D192480433314618447F
:10180000D61802F0C1FA404605F01AFF06F21F236F
:1018100007462344002227FA02F10832202A03F85F
:10182000011BF8D1874B043698193A46414602F01D
:10183000ABFABB191E1DF0B2C6F30727234400EB19
:10184000070E002202216FEA0E0EB6B283F82012B4
:1018500083F81F2283F8212283F8222206F21E2118
:101860004FF0FF0C84F81CE284F81A024FF0FE0ED1
:101870005FFA89F049F3072984F81B72724B84F8E8
:1018800018C2214484F819E284F81D0284F81E92DB
:1018900001E013F8010F8B420244FAD1F11D06F169
:1018A000080314FA81F19BB2D243B3F5007F81F8AB
:1018B0001822DFF8ACE119D8002B5FD003F2172310
:1018C000DFF8A0810EEB03070EF2172603E003F00A
:1018D000E5FCB74252D0626816F8011F13681B6816
:1018E00043450846F3D010469847F2E7574E0FCECF
:1018F0000EF509770FC70FCE0FC70FCE0FC796E8AB
:10190000030000234FF0030C3826FF228EF81FC27D
:101910008EF820624FF0FE0C3D268EF821328EF8B4
:1019200022328EF8233287E80300C2208EF8182274
:101930000722A7F137018EF81B328EF81E320737C7
:101940008EF819C28EF81A628EF81C028EF81D22CB
:1019500001E011F8012F8F421344FAD13C4EDB43D2
:1019600084F85C3206F14407FF2101E016F8011FFC
:10197000606803681B689847BE42F7D1284601217A
:1019800002F0E4FA009B9B457FF4C2AE994659F8F9
:10199000043F002B00F07581962002F0D5FAD9F8AB
:1019A00000100023037080F895300D7BD1F804A05F
:1019B0008F680646002D40F0A4810B68254A9B687D
:1019C000934200F0D881AB4608469847D9F80010FA
:1019D000BBF1940F00F3DC810BF101039846027810
:1019E000725500F1010E3544002A00F0CD8106EB5E
:1019F0000B02584607E01EF8013B02F8013F002B9E
:101A000000F0738158460BF1010BBBF1950FF2D139
:101A100006F19508D1F800E00F4ADEF80C30934249
:101A200008462CD008469847BBF1940F23DC037876
:101A300088F80030FBB10246B34406F1940118E087
:101A4000B113FF1FAB13FF1FA913FF1F3C7C000046
:101A5000A413FF1FC1060000C9060000A015FF1F48
:101A60008C11FF1FF108000012F8013F0BF8013F35
:101A70000BB15945F8D1D9F80000D0F800E0DEF8F4
:101A80000430CA4A934240F00B81D0F81CB0BBF13D
:101A9000630F04DD94F8F434002B00F0EE80CAF3F9
:101AA0000723384684F8203284F81FA205F0C8FDC9
:101AB0008246020A000C394684F8222284F8230266
:101AC00052464FEA1A67BA4884F821A284F8247271
:101AD00002F05AF9284605F0B3FD02460AF2252025
:101AE00020440AF10603002122FA01F708312029D7
:101AF00000F8017BF8D1AF48043329461844D518C3
:101B000002F042F9404605F09BFD05F21F2307460F
:101B10002344002227FA02F10832202A03F8011B8D
:101B2000F8D1A44B043558193A46414602F02CF935
:101B30007B191D1DE8B2C5F30727234400EB070EF0
:101B4000002202216FEA0E0EADB283F8201283F854
:101B50001F2283F8212283F8222205F21E214FF052
:101B6000FF0C84F81CE284F81A024FF0FE0E5FFAB4
:101B70008BF04BF3072B84F81B728F4B84F818C241
:101B8000214484F819E284F81D0284F81EB201E0B1
:101B900013F8010F99420244FAD1E91D05F1080337
:101BA00014FA81F19BB2D243B3F5007F81F8182279
:101BB000DFF824E219D8002B5FD003F21723DFF8F7
:101BC0001C820EEB03070EF2172503E003F066FB01
:101BD000AF4252D0626815F8011F13681B68434575
:101BE0000846F3D010469847F2E7744D0FCD0EF536
:101BF00009770FC70FCD0FC70FCD0FC795E80300AB
:101C000000234FF0030C3825FF228EF81FC28EF8F8
:101C100020524FF0FE0C3D258EF821328EF82232F4
:101C20008EF8233287E80300C2208EF8182207229C
:101C3000A7F137018EF81B328EF81E3207378EF867
:101C400019C28EF81A528EF81C028EF81D2201E07D
:101C500011F8012F8F421344FAD1594DDB4384F818
:101C60005C3205F14407FF2101E015F8011F6068AF
:101C700003681B689847AF42F7D13046012102F054
:101C800065F9504B99457FF482AEDDF804A0C4F8A5
:101C9000F8A40123C4F8FCA484F8F434FFF7F8B9DD
:101CA00098478346F3E602339846DBF80020029318
:101CB00090680268D2689047029B952B66D00278A4
:101CC00005F80820A844002A3FF45EAD01462B44E5
:101CD00005F1940006E011F8012F03F8012F002A06
:101CE0003FF452AD8342F6D14EE500F1020BD846E7
:101CF0000B68354ADB689342B0447FF493AE3348B7
:101D000092E63A7802707B1C002A4CD095374FF04F
:101D1000010B01E0BB4207D013F8012B00F8012FA3
:101D20000BF1010B002AF5D15D460B68284A9B6830
:101D3000934226D0374647E63A7802707B1C52B36E
:101D400095374FF0010901E0BB4207D013F8012B92
:101D500000F8012F09F10109002AF5D1886803680C
:101D60009B689847B9F1940F4E4639DC09F101039D
:101D700098462F46EAE44FF001081648AB46434622
:101D80002DE61448374623E69B46B1E7A844FBE41A
:101D90003544A8463EE6886803684FF001099B6811
:101DA00098474E46E2E70125AB46BEE7BD06000078
:101DB000B113FF1FAB13FF1FA913FF1F3C7C0000D3
:101DC000A413FF1F6816FF1FC9060000187C00003F
:101DD000C1060000047C00008C11FF1FF108000008
:101DE00005EB0906B0462F46C8E407F118019847ED
:101DF000FFF72AB910469847FFF780BA029FFFF70E
:101E000080BB0C234FF00809029309220B23009397
:101E10004F460A2301924FF0070C4FF0060E0520A3
:101E20004FF00408FFF71DBB2DE9F04F8DB0B94A04
:101E3000B94B06920022044600F2144600F58F6B5F
:101E4000ADF81C200B92089309930A9356F8043FAF
:101E5000002B00F00881962002F076F80023376806
:101E6000037080F895303B79FA68ADF81C20054680
:101E70003A68002B40F07482B868089202689A466B
:101E8000936898474FF00109D0464F46037805F80C
:101E90000A3005EB0A0E0130002B00F0358205EB0D
:101EA0000807414607E010F8012B07F8012F002A28
:101EB00000F0288219464B1C952BF4D105F19509A9
:101EC0003368CDF824E098680368DB689847236896
:101ED0003168CDF828904FF400721B684F690B925F
:101EE0008E4A934240F09382632F04DD94F8F434D9
:101EF000002B00F0B480BDF81C30DDF8208084F8A1
:101F00001F321B0A84F82032404605F099FB8246B6
:101F10004FEA1A634FEA1A42000A414684F8243213
:101F200084F821A284F8220284F8232204F22520D6
:101F3000524601F029FF09990091084605F080FBFF
:101F400004F21F28024600990AF1050040440AF1F4
:101F5000060A002322FA03FE0833202B00F801EFC3
:101F6000F8D10AF1040A08EB0A00924401F00CFFD0
:101F7000484605F065FB08EB0A010346002223FAF8
:101F800002F00832202A01F8010BF8D10AF1040A04
:101F9000494608EB0A001A46009301F0F5FE009B43
:101FA00003EB0A01081DC0F3072C5FFA80F908EB68
:101FB000010209EB0C0E00236FEA0E0E80B24FF007
:101FC000020A08F801309370D37082F801A000F281
:101FD0001E21FAB24FF0FE0847F3072784F81CE2EF
:101FE00084F81BC204F21D2E4FF0FF3C84F81E72D1
:101FF00084F81A92214484F818C284F8198284F86B
:102000001D22774601E017F8012F8F421344FAD1C1
:10201000C11D00F1080214FA81F192B2DB43B2F55E
:10202000007F81F8183200F21D8204F50678B2B103
:10203000013ADFF8F890904404F2172703E003F028
:102040002DF9B8450BD0626817F8011F13681B689B
:102050004B450846F3D010469847B845F3D128467B
:10206000012101F073FFB3457FF4F0AE04F2DC43CD
:1020700000935BF8043F002B00F03A81962001F0BA
:1020800063FF05460023DBF800002B7085F89530D0
:10209000037B4268ADF81C2087688646002B40F021
:1020A0007F810268089792681D498A42984640F0ED
:1020B0009E8101271B4A46463946137805F80830A9
:1020C00005EB080C0132002B00F0AE81A919374650
:1020D00007E012F8013B01F8013F002B00F03381CB
:1020E00037460136952EF4D105F195070368CDF8F2
:1020F00024C0DA680C498A4223D09047DBF800E01C
:10210000942E1CDC03783B70CBB102462E4405F1C3
:10211000940112E0947A0000747C0000B10B00007E
:10212000C1060000047C0000C9060000F1080000A0
:1021300012F8013F06F8013F0BB1B142F8D1DEF8C9
:1021400000300A975B682168BF4AD1F8008093424B
:102150004FF400710B9140F05681DEF81C60BB4FCC
:10216000B84540F03B81632E04DD94F8F434002B35
:1021700000F0BA80BDF81C30DDF8209084F81F32E2
:102180001B0A84F82032484605F05AFA80464FEA86
:1021900018634FEA1842000A494684F8243284F84A
:1021A000218284F8220284F8232204F22520424668
:1021B00001F0EAFD09990191084605F041FA04F29F
:1021C0001F2908F105020199824608F106084A44D0
:1021D00000232AFA03F00833202B02F8010FF8D16C
:1021E00008F10408524609EB080001F0CDFD0A99F8
:1021F0000191084605F024FAC2440199804609EB92
:102200000A02002328FA03F00833202B02F8010BFE
:10221000F8D10AF1040A09EB0A00424601F0B4FDC4
:1022200008EB0A030B9A09F80320191D5FFA81F8DD
:102230004B44C1F3072C4FEA122A4FEA12494FEAE6
:10224000126E89B208EB0C0083F801A083F80290AB
:1022500083F803E0C043F3B201F21E2246F30726DF
:102260004FF0FF0A4FF0FE0904F21D2E84F81C0205
:1022700084F81E6284F81A8284F81BC2224484F80F
:1022800018A284F8199284F81D327046002601E0E5
:1022900010F8013F82421E44FAD1CA1D01F1080321
:1022A00014FA82F29BB2F643B3F5007F82F818620B
:1022B00000F2408104F50677B3B1013BDFF8A0815D
:1022C0001F4404F2172603E002F0E8FFBE420BD0E1
:1022D000626816F8011F13681B6843450846F3D06F
:1022E00010469847BE42F3D12846012101F02EFE48
:1022F000009B5B457FF4BDAE012384F8F4340DB040
:10230000BDE8F08F8F1CB9463368CDF824E098689B
:102310000368DB689847952F00F07B81037805F808
:102320000930A944002B3FF4D2ADEB1905F194011B
:1023300006E010F8012F03F8012F002A3FF4C7AD83
:102340009942F6D1C3E5BE1C37460368CDF824C0D8
:10235000DA683F4B9A422F447FF4CFAE3D48CFE638
:1023600011780170531C002960D002F195002946B4
:102370004FF0010813F8012B01F8012F08F10108B3
:102380000AB18342F6D1B868089503689B689847FC
:10239000B8F1940FC24643DC08F10107B94675E570
:1023A0003A782A707B1C002A49D0953729460126A5
:1023B00013F8012B01F8012F01360AB19F42F7D122
:1023C000B046036808959A68234B9A4210D1942E20
:1023D000224A13DC711C0F4686466EE6314606AA79
:1023E0002046C0472846012101F0B0FD80E71E4687
:1023F0009047942E0246DBF80000EBDD05EB080C5D
:102400006746864672E6704698470646A7E639460E
:1024100006AA204698472846012101F097FD22E6AA
:1024200005EB080EF1464BE50E468EE7B8680895B9
:1024300003684FF001089B689847C246ACE74FF02D
:1024400001084646BDE700BFBD060000B10B000015
:10245000C9060000187C0000C1060000047C0000D2
:10246000F10800006C4A03926C4F23680597032221
:102470008DF810201B686A498B4240F0C080002311
:10248000382184F81F2207F1300984F8201284F8DB
:10249000213284F8223284F8233204F50978BC46CC
:1024A000BCE80F00CC45C8F80000C8F80410C8F814
:1024B0000820C8F80C30674608F11008EFD103CFA8
:1024C000FE22C8F80000C8F804100023C221FF272C
:1024D0003D2084F81922072284F81C1284F818720F
:1024E00084F81A0284F81B3284F81E3284F81D2204
:1024F00004F25B2101E01EF8012F71451344FAD16B
:10250000DB43DFF8209184F85C3204F2172704F5EE
:10251000177804E002F0C2FE47453FF4A0AD6268C0
:1025200017F8011F13681B684B450846F2D0104688
:102530009847F1E7384A0392384E236805960322FC
:102540008DF810201B68BB425ED10023382184F82F
:102550001F2206F1300884F8201284F8213284F812
:10256000223284F8233204F5097C37460FCF4745E1
:10257000CCF80000CCF80410CCF80820CCF80C30D3
:102580003E460CF1100CF0D103CEFE22CCF8000038
:10259000CCF804100023C221FF263D2084F8192224
:1025A000072284F81C1284F8186284F81A0284F84E
:1025B0001B3284F81E3284F81D2204F25B2101E0F4
:1025C0001EF8012F71451344FAD1DB43DFF8548024
:1025D00084F85C3204F2172604F5177704E002F061
:1025E0005DFEB7423FF480AE626816F8011F1368C3
:1025F0001B6843450846F2D010469847F1E703AA06
:102600000721204698472AE503AA07212046984734
:102610006AE6A9445BE400BFAC7A00003C7C0000A1
:10262000B10B0000F10800002DE9F04FDFF854A3D2
:1026300093B0DAF800300793DDF81CB0D0F8FC3422
:1026400042F6F822C3EB0B03934284BF002380F8C9
:10265000F434D0F8E034044633B1D0F800355B45AB
:102660003CBF0023C0F8E034C04DDFF81C93606825
:1026700003685B69AB4273D102F026FD002872DB70
:10268000D4F8F034D4F8E0240344072AC4F8F03432
:1026900050D082B9FF2877D0DAF800300893089B31
:1026A000CBEB0303052BE2D984F8F4246FF001008F
:1026B00013B0BDE8F08F012A6ED0022A00F0CC8062
:1026C000032A00F0D480042A00F0DB80052A00F001
:1026D000E780062A00F0EC80082AC8D1A44A1A40F4
:1026E00000239A42C4F8E034C0F26B81FF2ABED1C5
:1026F000D4F8E834002B00F096820A2B00F05E82BA
:10270000062B00F06C810B2B00F0658104EB83033A
:10271000D3F8EC020028AAD00368964A1B689342BB
:1027200004F1180140F07D82A26983694261103092
:1027300098479CE7D4F8EC34E2180133C4F8EC3441
:102740001076D4F8E434013BC4F8E434002B8ED185
:1027500060680823C4F8E03403685B69AB428BD03F
:10276000984700288CDA94F8F4040028A0D0D4F814
:10277000F83440F6C412C3EB0B03934200F2B68068
:10278000002013B0BDE8F08F01220BF11403C4F850
:10279000E024C4F800356AE7FE287DD094F8F424DC
:1027A0000023C4F8E034002A7FF461AF7249236843
:1027B0000F911B68714910928B42119240F08C80EE
:1027C000FF210820F723FE2684F818120A2184F836
:1027D0001A0284F81C3284F81F2284F8202284F81C
:1027E000212284F8222284F8232284F8242284F8E7
:1027F000252284F8262284F81B2284F81E2284F8DD
:10280000196284F81D1204F21D2304F2262001E04F
:1028100013F8011F98420A44FAD1D243584F84F862
:10282000272204F2172604F2272803E002F036FDDF
:10283000B0450BD0626816F8011F13681B68BB42D5
:102840000846F3D010469847B045F3D1DAF8003087
:102850000993099BE3600AE700220323C4F8E40418
:10286000C4F8F004C4F8EC24C4F8E034FFE6D4F86B
:10287000E43403EB00200423C4F8E404C4F8E03497
:10288000F5E63B4A1A40002A21DBFF2A0CBF05234C
:102890000023C4F8E034EAE60223C4F8E034E6E6B4
:1028A0000623C4F8E804C4F8F004C4F8E034DEE613
:1028B000D4F8E834D4F8E42403EB00230721C4F867
:1028C000E834C4F8E014002A3FF442AFCFE6013AFE
:1028D00062F0FF020132D8E70FAA0A21204698478A
:1028E000DAF800300993099BE360C0E6224A2368C6
:1028F0000F921B68214900228B421092119265D1E0
:10290000FF210820F723FE2584F818120A2184F8F5
:102910001A0284F81C3284F81F2284F8202284F8DA
:10292000212284F8222284F8232284F8242284F8A5
:10293000252284F8262284F81B2284F81E2284F89B
:10294000195284F81D1204F21D2304F2262001E01E
:1029500013F8011F98420A44FAD1D243084E84F872
:10296000272204F2172504F2272713E0D9060000D6
:10297000FF000080B10600007C7A0000B10B00006F
:10298000F10800007817FF1F40420F0002F086FC9C
:10299000AF420BD0626815F8011F13681B68B34281
:1029A0000846F3D010469847AF42F3D1DAF800302A
:1029B0000B930B9BC4F8F8B40020E36013B0BDE8A0
:1029C000F08F013A62F0FF0201328FE60FAA0A216E
:1029D00020469847EAE7002384F8F43447E6A769DD
:1029E000D4F80C359F4204F1180606D9B900D4F882
:1029F000140504F019FCC4F81405C4F80C75002F74
:102A000000F02C8104F5A26E304604230027827961
:102A100090F805C00179120442EA0C2290F807C030
:102A20000A4342EA0C62C4F81025D4F81425DEF8F3
:102A3000001042F82710D4F80C250137BA42194685
:102A400000F1040003F10403E1D8039301F10B0347
:102A500001F1090201F10808029301F10C0301924E
:102A6000474601F1050E01F1060CC81D01F10A02ED
:102A7000049316F80C10039B16F80EE016F803C02A
:102A8000335CD4F81805090441EA0E2141EA0C0C24
:102A90004CEA036383420AD99900D4F820050592D1
:102AA000039304F0C1FB059A039BC4F82005C4F806
:102AB0001835002B00F0D08004F21C5CF3190022C2
:102AC00004F5A16E997893F801801878090441EA19
:102AD000082193F80380014341EA0861CEF81410FD
:102AE000D4F82015DCF8000041F82200D4F81815BD
:102AF00001329142384603F1040307F10407E1D89B
:102B0000431D0193C31DB846821D029300F10807BF
:102B1000019BB05CF15C029A16F8083016F802804E
:102B2000D4F82425000440EA01210B4343EA086855
:102B3000904507D94FEA8801D4F82C0504F074FBBE
:102B4000C4F82C05C4F82485B8F1000F32D0002158
:102B50008E4604F5A56000231A4606EB070818F810
:102B600001CB0CFA03FC0833202B42EA0C02F6D10D
:102B700007F1040C6244944509D2FB1C33446746B8
:102B8000013713F8018F03F8018C9742F8D3B3187B
:102B90000CF1FF3703F801EC3744D4F82C35C4F8B6
:102BA0002875076843F82170D4F8243501318B4229
:102BB0001746D0D8012384F8043558E5DAF80030F8
:102BC0000C930C9BE2682E48D4F81CE02D4FDAF8E9
:102BD00000100E919A1AA0FB026080094FF47A76D9
:102BE000774406FB10220E9BA16909FB0272244F59
:102BF000A7FB03E70139BF09084406FB1733214649
:102C000009FB1323C21B226104F1100041F8143F99
:102C100000F01EF9DAF800300D930D9BC4F8FC3477
:102C200025E5984723E5226817490F9110931193E2
:102C30000A21136820460FAA9847DAF800300A9351
:102C40000A9BE3602046FFF7EFF8C4F8F8B4C4F835
:102C5000FCB44FF0FF302BE5049F59E70C2304939D
:102C60000B23029309234FF00808019304234746DE
:102C70000A2207204FF0060C4FF0050E0393F8E6EA
:102C8000D34D621000CA9A3B7C7A0000F0B5554BD8
:102C90005549564A564C2DED028B4FF46140196050
:102CA0000021C3F808255C60986083F8F414C3F829
:102CB0000C15C3F81415C3F81815C3F82015C3F87C
:102CC0002415C3F82C1503F2144285B003F58F6365
:102CD00042F8041F9342FBD14649002243F8042FD7
:102CE0009942FBD1444A002102F5007302F8011F0A
:102CF0009A42FBD14148002103F8011F98424FF04E
:102D00000002F9D13E4D9FED3F8A3F4CDFF834E1A0
:102D10003E4BAC61DFF830C13D493E482A73012487
:102D200005270294A9600197C5F810E0C5F800C016
:102D300085ED058AEC61384D9D610426374DC3F859
:102D400010E0C3F800C083ED058ADC611A739D6052
:102D50000096334DC0F800C0DFF8F0C0C0F810E0B6
:102D6000C0F818C0214680ED058AC46102738560F1
:102D7000182319222B482C4D00F046FC21460294C2
:102D80008DE8C0001A231B22284800F03DFC1C23BC
:102D90001D22214602948DE8C000254800F034FC35
:102DA000F0EE480A214695ED000A224800F064F84A
:102DB000F0EE480A95ED000A1F48214600F05CF845
:102DC0002146F0EE480A95ED000A1C4800F054F840
:102DD0001B480F2105B0BDEC028BBDE8F04000F0B0
:102DE000CFBC00BF8C11FF1FF47A0000C47A000032
:102DF0003807FF1F6816FF1FA311FF1FA315FF1F32
:102E0000F010FF1F00000000750600001011FF1FEA
:102E1000807C0000BC16FF1F89060000887C000033
:102E2000907C0000A010FF1FF806FF1F0417FF1F73
:102E30003411FF1F5010FF1F8010FF1FDC16FF1FF3
:102E40007010FF1FDC7A0000087B00009D06000068
:102E500070B40D68064B0468064E6A0AA3FB023282
:102E6000D3091C4406FB135304600B6070BC70470D
:102E7000834B040000CA9A3B9FED0D7ADFED0D6A8B
:102E800020EE070AB7EE007AC7EE007A10B501709F
:102E90000446C0ED030A67EEA67AC0ED040AC0ED51
:102EA000050AC0ED017A01F0F9F8E061204610BD95
:102EB000DB0FC9400024744910B4047F4160022C28
:102EC000C26003D05DF8044B00F03CBD83685DF840
:102ED000044B1847F0B4464B464A186BDC6A01793C
:102EE0001170454922790A709A6A00790870002A9F
:102EF00046D05968C9688A423ED82168CC8B2404E0
:102F000002F1FF3065D4C0F30E00C883C88B80B2D5
:102F1000C882196B0968C88B000452D4C2F30E0032
:102F2000C883C88B002480B212F1FF32C88218BF58
:102F300001229C62D96A2E4809680D6800F12404B8
:102F4000A54236D00068C46814F0804F0C680D6844
:102F500015BF248824780235013544F000440D6003
:102F60004463196B254B09791970214912B1CA6A5A
:102F700012791A70F0BC7047521A9A620122D9E78E
:102F8000586B196805681E4C0A63CC62CC682D68C2
:102F90001C4E24F080440327B542CC6083F8257092
:102FA0001FD1037F4260022BC2601ED0F0BC00F034
:102FB000C9BC016890F82400CC6840F00040486328
:102FC000CFE7CC8BC2F3080004F47E442043C883CF
:102FD000A7E7CC8BC0F3080004F47E442043C883E9
:102FE00094E72B461146F0BC18478368F0BC18479D
:102FF000FC06FF1F1F8000401C8000401B8000401B
:1030000000000FFFB92E000090E80C00F0B41C681F
:1030100059682568164F174E29432160164D1749E8
:103020001760D66015611160417A154A5C180C3141
:1030300094F82C4053F8215002EBC40149680D600C
:10304000017A5C1803EB8101247ECD6902EBC40197
:1030500049680D60817A581803EB810390F84000AD
:10306000596C02EBC002F0BC53681960704700BF96
:1030700001401F00011000380110007800001F807F
:10308000747D0000284A43689A4270B415D0827A51
:103090001A4492F8402091420DD093F840408C425F
:1030A0003FD093F841408C421DD093F842408C426F
:1030B00008BF022118D070BC70470D292BD00E29F3
:1030C00009D01B29E3D1194C227822F0300242F0BA
:1030D00020022270DBE7154C227822F0300242F009
:1030E00010022270D3E701211D685C682D6825421B
:1030F0000FD00F4C04EBC202002655685A182E6000
:1031000092F8402004EBC20403EB810362685B6C1D
:1031100013608172CFE7054C227822F030022270D2
:10312000B5E70021E0E700BF9C7C00007417FF1F9B
:10313000747D00004379082B1BD8DFE803F0080BEF
:103140000E11141A171A050003689B6A18470368C2
:103150001B69184703685B69184703689B69184730
:103160000368DB69184703681B6A184703685B6AD2
:103170001847704702790368002A10B5044614BF47
:10318000022100219B68984722792368002A14BFF6
:10319000032101219B6820469847236B03EB83039F
:1031A000DB0001D0013BFDD122792368002A2046B3
:1031B00014BF022100219B68BDE81040184700BFE2
:1031C000144B83FB0123A3EBE17303EB4303A1EB5C
:1031D0004303052B1CD8DFE803F0070B0F1317037D
:1031E000036806219B681847036804219B681847F9
:1031F000036805219B681847036801219B681847ED
:10320000036803219B681847036802219B681847DD
:10321000704700BFABAAAA2A01F0070101390629AD
:1032200009D8DFE801F00C1014181C042000036812
:1032300008219B681847036801219B6818470368A9
:1032400005219B681847036804219B681847036899
:1032500006219B681847036802219B68184703688A
:103260000A219B681847036809219B68184700BF1B
:10327000F8B54679042E0F4607D0082E17D0032E36
:1032800003D0062E0CBF03260226451D002415F888
:10329000010F47FA04F32979DB0748BF81F00101E8
:1032A000013400F0EFFEE3B29E42F0D8F8BD0426F0
:1032B000EBE700BF10B504460121807900F0E8FE7D
:1032C000E079012100F0E4FE6379042B1FD0082B84
:1032D0001DD0032B12D0062B10D094F83500FF28F8
:1032E00014D0012100F0D4FE94F8341094F8350085
:1032F00081F00101BDE8104000F0C4BE207A012138
:1033000000F0C6FE94F83500FF28EAD110BD207AFF
:10331000012100F0BDFE0121607A00F0B9FEDCE77A
:10332000437903B97047FFF7C5BF00BF38B50446FE
:1033300000F0B4FEE36AA26AC31A93420FD3237962
:103340002169054643B90139216123682046DB68BC
:103350009847E562012038BD01312161F5E7002081
:1033600038BD00BF01F00301022903680CD0032916
:1033700007D0012902D002219B68184703219B68CE
:10338000184700219B68184701219B68184700BF18
:10339000427902B97047036810B5044600219B6862
:1033A000984794F83500FF280AD0012100F070FEFC
:1033B00094F8341094F83500BDE8104000F062BE77
:1033C00010BD00BF01F00301022903680CD00329DE
:1033D00007D0012902D005219B68184706219B6868
:1033E000184709219B6818470A219B68184700BFA6
:1033F0000A4B83FB0123A3EBE17303EB4303C91ADD
:103400000129034603D0022901D019B170471B6876
:103410009B681847036804219B6818475655555503
:10342000D0ED067AF5EEC07AF1EE10FA01DD836B8D
:103430001847C36B184700BF836A0BB9184670471B
:10344000FFF774BF006970470023002201614161EA
:10345000826103648362704790ED067AD0ED087A4A
:103460004369026977EEA77A27EE077A9B1AC7EEBF
:10347000276A002B10B4FDEEE67A17EE901A20D1E1
:1034800001295CDD026C002A4ED1002BD0ED117AAF
:10349000D4BF002301230371C0ED127A0022BCEED9
:1034A000E77ADFED2F6A80ED0A7A0132026486EE58
:1034B000A77A0BB9B1EE477A80ED067A5DF8044B36
:1034C0007047026C24DD002A30DD994228DA047945
:1034D00034B3234607EE902AF8EEE76AB7EE007A97
:1034E000F1EE007AA6EEA77AD0ED127AD0ED136A4B
:1034F00077EEA75A85EE876A77EEC67AF4EEE67A1B
:10350000F1EE10FAB8BFF0EE667AC0ED127AC6E7B7
:10351000002A19DD5C42A14202DA0479002CD8D0DD
:103520004A420264002AB0D00479D2E7ADD0994271
:1035300013DA04792346002CCCD05242C9E700228A
:10354000836203648261B9E79FD05B42994204DAE7
:1035500004792346002CBDD1EFE70379BAE700BF19
:1035600000247449FFFFFFFF10B5B5EEC00AF1EE6D
:1035700010FA90ED087A2DED028BB0EE408A48BF2C
:10358000B1EE408AB4EE487AF1EE10FA044602D168
:10359000BDEC028B10BDC7EE086AD0ED107AF8EED4
:1035A000E77AB0EE007A67EEA67AC7EE086AFDEE1B
:1035B000E77A16EE900AC4ED107A02F063FF41EC50
:1035C000100B02F08FFB0CA3D3E9002351EC100B7E
:1035D00002F0ACFF0AA3D3E9002302F0A7FF03F037
:1035E00075FA84ED088ABDEC028B60642046BDE864
:1035F0001040FFF731BF00BF000000C0CAA1E53F87
:103600000000000080842E41F8B501278271C3714B
:103610009DF818209DF82060DFF86CE00763FF2319
:1036200000259DF81C7080F83530027200234FF0A1
:103630007E5204464171C0F800E047720361436165
:103640008362C36280F83430036403718372C3728F
:10365000037343738561056245648564C261426298
:10366000C26406B131B92046B7EE000AFFF77CFF0D
:103670002046F8BDFFF71EFE2046B7EE000AFFF712
:1036800073FF2046F8BD00BF387D0000B5EEC00ACC
:10369000F1EE10FAD0ED077A48BFB1EE400AB4EE71
:1036A000670AF1EE10FA1AD09FED0D7A026C80EDE8
:1036B000070AC7EE007A002AC0ED137A0FDD90EDFD
:1036C000067AD0ED087A27EE077A77EEA77AC7EE6A
:1036D000276AFDEEE66AC0ED106AFFF7BDBE7047CF
:1036E00000247449B5EE400AF1EE10FA01D0FFF75C
:1036F0003BBF7047D0ED067AF4EE407AF1EE10FA57
:1037000018D0D0ED077AB1EE677AB4EEC07AF1EE58
:1037100010FA10DCF4EEC07AF1EE10FA58BFF0EEB9
:10372000407AF5EE407AF1EE10FA0BD10023836275
:10373000C0ED067A7047F0EE477AF5EE407AF1EE8A
:1037400010FAF3D0DFED096A86EEA77AF5EEC07ABB
:10375000B0EEC77AF1EE10FABCEEC77ACCBF012307
:10376000002380ED0A7A0371E2E700BF0024744968
:10377000016370478272C17280F83430704700BFB5
:1037800010B4044CC46000224170027082605DF885
:10379000044B70470320003808B5054BC360012176
:1037A000407800F075FC0348BDE80840FFF72CBCEA
:1037B0000504003AFC06FF1F0078704741F4804181
:1037C000F8B50A4604461023002012F0010F18BF76
:1037D000013003F1FF3318BFC0B213F0FF034FEA0B
:1037E0005202F2D14A4DE268EB7A00F0010041EA60
:1037F000C036370AEBB172B6EB7AD807194609D54D
:10380000DFF828E1E868DEF800100140A961CEF891
:1038100000101946980709D5DFF814E12869DEF889
:103820000030E97A0340EB61CEF800304B0767D4F3
:1038300062B62B68D968914207D03648186036497D
:10384000DA6042F08040186119600021607800F071
:1038500019FC2B68FFB24FF00042DA625F63DA6A4C
:10386000002AFCDAF0B24FF00042996BDA6258633A
:10387000DA6A002AFCDA012160789B6B00F002FC16
:103880004FF47A63013BFDD10021607800F0FAFB30
:103890002B684FF000410022D9625A63DA6A002A8D
:1038A000FCDA4FF0004100229E6BD9625A63DA6A5B
:1038B000002AFCDA012160789F6B00F0E3FBEB7AD1
:1038C00013491A4683B1D80703D5144A8969116090
:1038D0001A46990703D5124BE969EA7A196053072A
:1038E00002D5104B2A6A1A6016F040034FEA0626EA
:1038F00018BF012306F47C56F8B223703043F8BD9C
:1039000009496B69086803402B620B6090E700BFB0
:10391000FC06FF1F01403F0000003F8000E100E087
:1039200004E100E008E100E088E100E080E100E07F
:1039300084E100E043F6FF71FFF740BF0121FFF78C
:103940003DBF00BF10B4EFF3108272B6437F33B9AE
:10395000017F012908D0032910D00123437702B940
:1039600062B65DF8044B7047114C2168A1B1114952
:1039700043610B68836108605861EEE70E4C216873
:1039800081B10E4943610B688361086058610C4B3B
:103990004FF080511960E0E7064B41618161206082
:1039A0001860DAE7054B4161816120601860EEE73D
:1039B0006817FF1F6417FF1F5817FF1F5C17FF1FB3
:1039C00004ED00E070B5EFF3108272B60C4C206885
:1039D00080B10C4E00254369236073B19D6102B92B
:1039E00062B6457783689847EFF3108272B6206815
:1039F0000028F0D102B962B670BD3360EFE700BFB6
:103A00005817FF1F5C17FF1FFFF7DCBF184A30B4C1
:103A10001468002C27D0036821688B420ED2CB1A81
:103A200000218460C1602360E060106002230375A0
:103A300030BC704711688B42144608D3A2685B1AE9
:103A40000360002AF6D18260C460A060EEE7D2680D
:103A5000C2608460E060C568CB1A0222A86023605F
:103A6000027530BC70478460C4601060DEE700BF40
:103A70006017FF1FF8B5224E34682CB32368002B63
:103A80003AD1204F1D4604E03468ECB12368002B86
:103A900032D1A36803B1DD60206933600368257506
:103AA0001B68BB4221D1037F4560022BC46020D03C
:103AB000FFF748FF6368002BE6D023602046FFF73E
:103AC000A5FF3468002CE1D1EFF3108372B60E4AE3
:103AD00000211068116003B962B628B18468FFF74D
:103AE00095FF20460028F9D1F8BD224600219847CD
:103AF000E0E783689847DDE7013B2360E4E700BF28
:103B00006017FF1FB92E00007017FF1F024A1368CD
:103B100001331360FFF7AEBF7817FF1F00B5064AE9
:103B2000036812885B6883B001A9ADF80420022203
:103B3000984703B05DF804FB647D0000F0B50746CC
:103B40008BB0002A33D0012A08BF0A2251B32124A6
:103B500000E0F4B2B1FBF2F502FB1511C8B209297D
:103B600000F1300198BFC8B20AA988BF373021449C
:103B700088BFC0B201F8240C661E2946002DE8D18A
:103B800033B1013CE4B20AAB23442D2203F8242CC8
:103B90003B6801AA11195B683846C4F122029847B4
:103BA0000BB0F0BD30228DF825202124E8E7036812
:103BB000C9B21B6898470BB0F0BD00BFFFFFFFFF05
:103BC0002DE9F04357EC106B85B005460C4610EE1E
:103BD000102A3B4610EE100A394602F041FF002839
:103BE00040F0B28027F00049304649464FF0FF329E
:103BF000594B02F035FF90B9304649464FF0FF323D
:103C0000554B02F00FFF50B92B6854495B682846AA
:103C1000032298478046404605B0BDE8F0834FF048
:103C200060424F4B3046394602F010FF002872D1F7
:103C30004FF060424B4B3046394602F0E9FE002817
:103C400069D1002200233046394602F0E1FE002807
:103C500064D18146002C67D0434900204FF0000812
:103C60003BA3D3E9002308F1010802F05FFC5FFAEF
:103C700088F39C42F4D802460B463046394602F09F
:103C8000A3FA0F46064602F001FF804602F0D8FB79
:103C900002460B463046394602F094FA4B46064639
:103CA0000F460A2241462846FFF748FF0F2C28BF3F
:103CB0000F2404F101092E2380465FFA89F98DF85B
:103CC000003001240022294B3046394602F02EFCF8
:103CD0000F46064602F0DAFE04AB2344C0B200F100
:103CE000300203F8102C02F0BBFB02460B463046B4
:103CF000394602F067FA0134E4B24C4506460F46F5
:103D0000E0D12B6822465B682846694698474046C2
:103D100005B0BDE8F0832B68154977E707F100434C
:103D20001F464FF0010995E700220F4B30463946F8
:103D300002F04AFA02F0AAFE4B4601460A22284641
:103D4000FFF7FCFE804666E72B680A495EE700BF86
:103D5000000000A09999B93FFFFFEF7F707D000040
:103D6000FFFFEF41FFFFEFC10000E03F00002440F4
:103D70006C7D0000687D000008B5FDF75BF8FDF77D
:103D80003BF901F00BFBFAE7844641EA000313F02C
:103D900003036DD1403A41D351F8043B40F8043B52
:103DA00051F8043B40F8043B51F8043B40F8043B15
:103DB00051F8043B40F8043B51F8043B40F8043B05
:103DC00051F8043B40F8043B51F8043B40F8043BF5
:103DD00051F8043B40F8043B51F8043B40F8043BE5
:103DE00051F8043B40F8043B51F8043B40F8043BD5
:103DF00051F8043B40F8043B51F8043B40F8043BC5
:103E000051F8043B40F8043B51F8043B40F8043BB4
:103E100051F8043B40F8043B403ABDD2303211D354
:103E200051F8043B40F8043B51F8043B40F8043B94
:103E300051F8043B40F8043B51F8043B40F8043B84
:103E4000103AEDD20C3205D351F8043B40F8043B54
:103E5000043AF9D2043208D0D2071CBF11F8013B52
:103E600000F8013B01D30B8803806046704700BF18
:103E7000082A13D38B078DD010F003038AD0C3F127
:103E80000403D21ADB071CBF11F8013B00F8013B09
:103E900080D331F8023B20F8023B7BE7043AD9D3C8
:103EA000013A11F8013B00F8013BF9D20B7803709D
:103EB0004B7843708B7883706046704708B5104C20
:103EC00008E0236859050DD423681A050FD4236828
:103ED000DB0411D423685803F3D500F0BDFA23683E
:103EE0005905F1D501F048FB23681A05EFD501F01B
:103EF000D9FB2368DB04EDD501F06AFCEAE700BFDB
:103F00003480044008B5FFF7D9FF00BF014B1022F1
:103F10001A80704700200540704700BF094908B566
:103F20000B6830B16A461844A2F50052904202D2A2
:103F30000860184608BD02F019FE0C2303604FF01C
:103F4000FF3008BD3407FF1F02F03EBE02F044BE42
:103F5000F0B44D1E2E46002400E00134B0FBF2F315
:103F600002FB1300092800F130078ABF3730F8B28E
:103F7000C0B206F8010F1846002BEED10A19537093
:103F80004CB1107815F8016F28700133E01A8342A4
:103F900002F80169F5DB0846F0BC704710B4114B1C
:103FA00053F8302092F8804234B1012379B182F87D
:103FB00080305DF8044B704703EBC0035B681A6800
:103FC00051B922F002021A605DF8044B704782F882
:103FD00000315DF8044B704742F003021A605DF84F
:103FE000044B7047747D00001C4A02EBC00301299A
:103FF0005B6811D004291BD052F83000002280F8F1
:10400000802229B1022920D0032922D01A607047CA
:104010004FF480721A60704752F830004FF4A27269
:1040200080F880121A601A6822F020021A60704725
:1040300052F830104FF4A272012081F880021A6009
:104040001A6842F020021A60704740F203121A60A8
:1040500070474FF481721A60704700BF747D000092
:1040600030B4054B054D064C002210211A602A6021
:104070002060196030BC704714D0034004D0034066
:1040800000D003403F2801D8FFF788BF704700BF2A
:104090003F2801D8FFF7A8BF704700BF72B60C4990
:1040A0000C4B0D4A1B680868126862B6520102D5B3
:1040B000322B88BF01300949C3F5EA334FF47A72D5
:1040C000BF33A1FB031302FB00F000EB931070471A
:1040D0007817FF1F18E000E004ED00E08988888869
:1040E0002DE9F843054672B6204F214B214A1B6843
:1040F0003C68126862B6520102D5322B88BF013487
:1041000095B3C3F5EA331C4EDFF86490DFF86480A2
:10411000BF334FF47A72A6FB031302FB04F404EBE3
:10412000931472B6D9F800103A68D8F800E062B675
:10413000C1F5EA33BF33A6FB03031EF0806FC4EB67
:1041400093134FF47A7002D0322988BF013200FBFA
:104150000233B3F57A7F04D3013D05D004F57A74B8
:10416000DFE701F01BF9DCE7BDE8F8837817FF1FF4
:1041700018E000E004ED00E089888888F8B53E4B3F
:104180003E49DFF818C13E4E3E4ADFF814E13E4D8D
:104190003E4C3F4F4FF0006018604FF08050186069
:1041A0004FF0005018604FF0804018604FF0004012
:1041B00018600020086028234EF6FF71CCF800102C
:1041C000CEF8003033600EF5012E13602B602360B3
:1041D00005F500253B6004F50024B36207F50027D0
:1041E000936206F5012602F501220EF1100E05F686
:1041F000E87504F6E87407F57F67103220362B6007
:104200002360CEF800303B6013603360214EBB6109
:10421000936109223260A7F5002706F58056203FFA
:10422000083638603160BB60F36047F8042C06F54F
:10423000FD2607F5FE2706F2FC760437306039606C
:10424000B360FB6046F8042C0836C7F8FC0F06F68E
:10425000FC76114831602B602360026001F00CF99C
:104260001920FFF73DFF00F05FFE40F21310BDE89C
:10427000F840FFF735BF00BF04E100E004800340D1
:10428000148003401C800340248003402C800340A2
:10429000348003400080034000900B4008800340BE
:1042A0000C800340431E032B14D872B60A4951F800
:1042B000230068B170B4094C058834F813204668AF
:1042C00041F82360521B24F8132062B670BC70477B
:1042D00062B6704700207047D417FF1FAC1BFF1F4A
:1042E000013803280BD872B6074B53F8203043B17E
:1042F00000205B680130002BFBD162B670470020C4
:1043000070471846F9E700BF2818FF1F30B472B68F
:104310002B4A13781D0706D52A4B196A002936D077
:10432000996A002941D053781C0706D5254B196C92
:1043300000293ED0996C002939D09378190705D50A
:10434000204B196E002936D0996E89B1D3781B079E
:1043500007D51C4BD3F880207AB3D3F888201121DD
:104360003AB162B6184B00221A7030BC00F086BE1B
:104370000D21154C154D227843F8315003EBC10344
:104380000830013A5860227062B630BC704704228F
:104390000D4C0F4D217843F8325003EBC203083027
:1043A0004A1E5860227062B6EFE70521E1E7092155
:1043B000DFE70822ECE70C22EAE71022E8E700BF7B
:1043C0009C7F00000000FF1F5118FF1FC800400025
:1043D00088004000431E032B1DD81B4A400140F0BB
:1043E000100030B4104472B6184CE25C032A1BD89B
:1043F000DFE802F00212151703220D88E25410F0D4
:10440000080F14BFC823882343EA0543083103601B
:10441000416062B630BC704708300222EDE70522E9
:10442000EBE708300422E8E7094A52F8230038B1E4
:10443000084A52F82300416042F8231062B6E9E7C7
:1044400042F82310034AF7E70000FF1F6018FF1F20
:104450002818FF1F3818FF1F2DE9F04FDFF80CB3A5
:10446000DFF80CA387B044E0AB4F4FEA930807EBAB
:10447000C809013ED9F8042003F00803F6B2A2F1FE
:10448000080003F0FF04002B40F0028157F8383099
:104490001B0C99B222F8081C002B00F0F0809F4BF7
:1044A00022F8064C42F8044C53F82620002A00F06B
:1044B000C5829B4D55F8263058609A4C45F8260029
:1044C00034F81630194424F8161000F0B7FD00280F
:1044D00000F0AD82944A954B19F0080F00F10800E6
:1044E00018BF1346C9F8040047F8383008238BF882
:1044F00000309BF80040E4B261071AD58C4B1B7862
:10450000A3B18C490A7802F0FF0322B1013BDBB270
:104510000B7003B900BE88490A7802F0FF032AB184
:10452000013BDBB20B70002B00F0578204238BF8A9
:10453000003004F0080303F0FF02002B00F0CC80F1
:104540009AF80030DBB21E098ED19C08DFF8C891C2
:1045500059F8342009EBC401C2F38302013A4968D7
:104560000C2A00F28880DFE802F07C7C8686868652
:1045700086864786868607000868704D4A68704FB1
:10458000704E286081B240F28160674B6A604FF0E4
:10459000010E0022814249F834303A60C9F81020F7
:1045A000C9F8182086F800E05B4C00F2E380B1F512
:1045B000D06F80F04683B1F5817F00F0FC8200F27D
:1045C0008D82802900F07783822940F0FA82A988C1
:1045D00001F07F01042900F2F4825B485B4C890002
:1045E0000844227062700278930740F1588484F87E
:1045F00000E04FF0020E42E3514F3A6832B3544BA1
:10460000504E5449188834780D784028864645F035
:10461000020828BF4FF0400E002C84F001043470D3
:10462000CEEB00000CBF8824C82409EBC80680B27A
:1046300085F0010544EA0E447260188049F838405C
:1046400072440D70002800F045813A603B4B1A8897
:10465000B2F5A06F0FD100219A7859703E4B1A70B5
:1046600009E0364A108842F22102904200F0378178
:104670002D4A49F83420394A0123137036E72A4A73
:104680002A4B19F0080F18BF134647F838302DE7AA
:1046900000F0F4FC324A334952F82630002B00F087
:1046A000D18158688C5D42F8260003F10802C9F8F0
:1046B0000420032C05D8DFE804F02C02292602226E
:1046C0008A551A8819F0080F0CBF8823C82343EABB
:1046D000024347F8383009E7E00700F181812106FD
:1046E00000F1F281A20706D51F4A20491378022063
:1046F000DBB213700870E30602D51C4B10221A704F
:1047000007B0BDE8F08F04228A55DAE705228A5502
:10471000D7E703228A55D4E70000FF1FD417FF1FF5
:104720008017FF1FAC1BFF1FC8004000880040001F
:104730005C18FF1FE517FF1F6418FF1F4818FF1FB5
:104740007C17FF1FE417FF1FC02007405418FF1FEE
:104750009017FF1F5018FF1F982007409420074014
:104760002818FF1F6018FF1F88200740802007407F
:104770009020074042F22100814200F02A8100F29D
:10478000D880B1F5086F00F07682B1F5106F40F077
:104790001882226AB349A8780870120600F13A8399
:1047A000D9F82820B049130600F10C83D9F830203D
:1047B000AD49150600F10183D9F83820AA4914063D
:1047C00000F1F682D9F84020A749100600F14A838B
:1047D000D9F84820A449120600F13F83D9F85020A7
:1047E000A149130600F13483D9F858209E491506D3
:1047F00000F12983D9F860209B49140600F11E833B
:10480000D9F868209849100600F11383D9F8702070
:104810009549120600F10883D9F8782092491306C9
:1048200000F1FD82D9F880208F49150600F131830F
:10483000D9F888208C49140600F12583D9F89020F6
:104840008949100600F11983D9F898208649120683
:1048500000F10D838548864A864901908648874D38
:10486000874C049700230596029580460F4616460E
:104870001D460394306828B1446800F0FFFB2046D1
:10488000002CF9D100233360029B38681A460023BC
:1048900042F8253028B1446800F0F0FB2046002C97
:1048A000F9D100223A60019A98F8003011460022AE
:1048B00041F8042B039A0191023B4FF0000122F8CA
:1048C0001510032B00F22B81DFE813F07001250196
:1048D00070012501BEF1400F18BF0022B5E6694AFC
:1048E0000D784878157050708D78C8789570D070B4
:1048F00010680D79157186284D79897955719171F6
:1049000000F09B816049614E0A78307882F00105A1
:10491000002842F002020D700CBF8821C82149F81E
:10492000321009EBC20280F00100002130705160AA
:104930009EE642F22120814240F0CB81544B554CFF
:104940005549A8781D682560CDF804E0087000205E
:1049500002908046844604464B490D7845F0020E8D
:1049600009EBCE030393019B002B039B5C600CBF00
:104970008824C82444EA080385F0010449F83E303D
:1049800032700C70DFF8E0E0404BDFF8FC8000286C
:1049900040F01E81BCF1400F1BD144F0020C09EB2A
:1049A000CC03029CDFF8C0E05C60002A40F0268166
:1049B000020442F088029DF804304EF83C20044482
:1049C00033700D702346402803D10020334A3B60EA
:1049D0001080334A012313704DE600F0BBFCA5E5BF
:1049E000214B2F4828491A614FF0020E80F800E051
:1049F0002C4F0A702C49196099602C4E2C4D2D4C6F
:104A00009A610D213970FF213170DFF8B8E029700B
:104A10002270294D294A8EF800109F27012406F89C
:104A2000047C5D600470DA6007B0BDE8F08F244A52
:104A300047F8380013780133137057E543F8260020
:104A40000E4D3AE58B5D032B00F2F08001A252F887
:104A500023F000BFED440000ED440000114B0000C6
:104A60000B4B00005C18FF1F0000FF1F3818FF1FD2
:104A7000D417FF1F2818FF1F6018FF1F8017FF1F84
:104A8000AC1BFF1FB41BFF1F5018FF1FE417FF1FB5
:104A90007817FF1FBC1BFF1F7418FF1F9017FF1F05
:104AA00094200740C020074088004000882007402D
:104AB00080200740982007409417FF1FE817FF1F2A
:104AC0005118FF1F8C200740C149C24B80220D2086
:104AD00008701A70A2077FF50EAE05E640F20232AA
:104AE000914240F0EE80A98801F07F01042968D846
:104AF0006A88002A65D1B648CDF804E089000844E8
:104B0000017841F00201017021E701238B55EDE4AA
:104B100000238B55EAE44FF0010388F8003001359B
:104B2000042D06F1040607F1040708F101087FF4DB
:104B3000A1AEA94CA94B2278A94D049F059E002146
:104B400029701A70130700F105816278A549DFF812
:104B5000A0820A7010074FF00001C9F83010C9F8A0
:104B6000381000F1E080A049A2780A700021C9F84D
:104B70005010C9F858101107DFF8748200F1018154
:104B8000E2789A499A4C0A7000211207C9F870100D
:104B9000C9F8781000F1B08033780193002183F0D8
:104BA0000102C9F89010C9F89810D0E64FF0000340
:104BB00088F80030B3E7A98801F07F01042940F2AA
:104BC0008D80834A0F2313708A4A0123137052E5A4
:104BD00040287FF6E2AE44F002040EEBC401029ED0
:104BE0004E60BAB19DF80410834A197033464038BC
:104BF00088F8005040334EF83420E7E69DF8043042
:104C000033700204029B0D7042F0C80203444EF858
:104C10003C20D8E69DF804101970029B774A88F86A
:104C20000050403840334EF83420CFE619F0080FDA
:104C30000CBF022303238B5558E4714A0F211170D6
:104C400060E6704A5468002CBBD06888B5F804E070
:104C500003E00C325468002CB3D013888342F8D19F
:104C600053887345F5D1000A03280CBF94F800E07F
:104C7000B2F808E003E0644A644C12782270E888D5
:104C8000704580F03F8162490D784028844645F0A8
:104C9000020E28BF4FF0400C04EB0C0309EBCE02D0
:104CA000029301235460CCEB00004FEA0C48002231
:104CB0000193C8245EE6554C4FF0020E22706270DC
:104CC000DDE7B1F5A06F7FF47CAF012300220193F3
:104CD0003DE642F221329142F7D072E76A88002A1B
:104CE0007FF46FAF3A48CDF804E0890008440178BA
:104CF00021F0020101702AE600F0A0F9002800F07E
:104D0000EF8008303D4AC4F88400C4F8802000F0E9
:104D100095F9002800F0DE800830374AC9F88C0089
:104D2000C9F8882038E700F089F9002800F0C08031
:104D30000830324AC8F84400C8F8402000F07EF934
:104D4000002800F0AF8008302B4AC9F84C00C9F8A1
:104D5000482008E700F072F9002800F0CD80083004
:104D6000264AC9F82400C9F8202000F067F9002875
:104D700000F0BC800830204AC9F82C00C9F828206F
:104D8000E3E600F05BF9002800F09E8008301B4A43
:104D9000C8F86400C8F8602000F050F9002800F05E
:104DA0008D800830144AC9F86C00C9F86820E7E61D
:104DB000C86B083800F062F904E5486B083800F069
:104DC0005DF9F9E4C86A083800F058F9EEE400BF6C
:104DD000C0200740802007409C7F0000C42007407F
:104DE0005118FF1FC8200740CC200740D0200740A3
:104DF0000000FF1F94200740C800400088004000CA
:104E0000E517FF1FA07F00005C18FF1F5418FF1F4D
:104E10005018FF1F606A083800F030F9C0E4C86F0E
:104E2000083800F02BF9FDE4486F083800F026F947
:104E3000F2E4C86E083800F021F9E7E4486E08385B
:104E400000F01CF9DCE4C86D083800F017F9D1E473
:104E5000486D083800F012F9C6E4C86C083800F054
:104E60000DF9BBE4486C083800F008F9B0E4D1F85B
:104E70009C00083800F002F9ECE4D1F894000838FE
:104E800000F0FCF8E0E4D1F88C00083800F0F6F807
:104E9000D4E4D1F88400083800F0F0F8C8E44FF00A
:104EA000020EECE62A78C9F8480001322A705AE668
:104EB0002A78C8F8400001322A703FE72A78C9F8FA
:104EC000680001322A705BE62A78C8F86000013277
:104ED0002A7061E72A78C9F8880001322A705BE6F7
:104EE0002A78C4F8800001322A7010E72A78C9F8BD
:104EF000280001322A7028E62A78C9F820000132F9
:104F00002A7032E7BEF1400FF44628BF4FF0400C44
:104F100004EB0C0302930123CCEB0E004FEA0C4888
:104F20000022019318E500BF2DE9F04100F030FEAA
:104F30002F4C304B3048DFF8D880304F304D314E59
:104F4000DFF8D0C0DFF8D0E000221A605A609A6023
:104F5000DA601A615A619A61DA611A625A629A6277
:104F6000DA621A635A639A63DA631A645A649A6457
:104F7000DA641A655A659A65DA651A665A669A6637
:104F8000DA661A675A679A67DA67C3F88020216879
:104F9000C3F8842041F480212160016841F0407110
:104FA0000160C3F3072188F8001004F52834C3F327
:104FB00007411B0E3970CC342B7000F12040FF23C9
:104FC0008CF80030104D8EF8003000F6041033706D
:104FD0000E49012308F8083C702622704FF4001493
:104FE000102207F82C3C2E7004600A70BDE8F08196
:104FF000348004400000FF1F00D80040B02007406C
:10500000B42007401020074035E400E008210740A5
:105010009C200740802007408820074000F09EB871
:1050200000F076B800F08CB800F068B900F042B932
:105030000846114600F0AEB8704700BF72B60D4882
:105040000268B2FA82F30B2B10DC4FF00041D9401A
:1050500022EA0102026062B6074803EBC303DB00E9
:10506000C2180021C15010465160704762B600203E
:10507000704700BF4807FF1F9803FF1F0D4B0E4AE4
:10508000C31AA2FB03231B090B2B0CD80B4A127863
:1050900052B972B60A484FF00041026821FA03F390
:1050A0001A43026062B67047064A1278002AF0D0AE
:1050B000FFF72CB99803FF1F398EE3385118FF1FF3
:1050C0004807FF1F5C18FF1F38B50F4D286878B1DF
:1050D00043880288C118013393420C7A02D243807C
:1050E000204638BDFFF7CAFF002320462B6038BD9D
:1050F000064B1B782BB10320FFF7D4F8286000285B
:10510000E6D14FF0FF3038BD7018FF1F5C18FF1F4D
:1051100010B5094C206818B143881844007A10BDB6
:10512000064B1B782BB10320FFF7BCF8206000284A
:10513000F2D14FF0FF3010BD7018FF1F5C18FF1F39
:10514000044B054A1B6890881BB11A885B88D31AE8
:10515000184470477018FF1FAC1BFF1F0B4B1B78C8
:105160009BB110B50A4C206848B1FFF787FF0023B8
:1051700003202360FFF796F830B1FFF77FFF03208D
:10518000FFF790F80028F8D110BD70475C18FF1F9A
:105190007018FF1F2DE9F04FDFF8F89083B001225F
:1051A00089F80020019169B3DFF8EC80364F019E49
:1051B0008346D8F80000B0B3344D4488C4F14001B0
:1051C000B14228BF314604EB010E00221FFA8EFEC9
:1051D0002A70761AA0F802E000F1080251B1013CF1
:1051E000224459441BF8014B02F8014F8B45F9D179
:1051F000B0F802E0BEF13F0F0BD8254A052111702F
:10520000002ED6D10198002389F8003003B0BDE804
:10521000F08F4022028001460420FFF7DBF80022D5
:10522000C8F80020E9E73A782AB3184D4DF2E904AE
:105230004FF0010A07E0013C16D02A78A2B900F02D
:10524000ADF83A78BAB10420FFF74AF80728F2D847
:1052500089F800A0FFF7F2FEC8F800000028ACD1E2
:105260000C4B013C1870E8D101234FF0FF302B703C
:1052700003B0BDE8F08F00234FF0FF3089F8003015
:1052800003B0BDE8F08F00BF5C18FF1F6C18FF1F54
:105290006418FF1F6518FF1F6818FF1F00B583B053
:1052A00002AB012103F8010D1846FFF773FF03B0AD
:1052B0005DF804FB38B50E4D0E4C286801232370B1
:1052C00028B1408800232370C0F1400038BD0A4B4C
:1052D0001B7813B90020207038BD0420FFF700F8B8
:1052E0000728F7D8FFF7AAFE28600028E9D1F1E7E0
:1052F0006818FF1F6518FF1F5C18FF1FF8B5114BDA
:105300001B788BB1104E114D346801272F7064B19A
:105310000F4A638800271770214623800420FFF777
:1053200059F8376000232B70F8BDFFF787FE084B54
:1053300028B1014604201C70FFF74CF8F2E71F70FB
:10534000F0E700BF5C18FF1F6818FF1F6518FF1FFC
:105350006418FF1F38B50E4B1B7873B90D4C2168CC
:1053600061B103F0FF054B880B800420FFF732F892
:10537000256038BD084B01221A7038BDFFF75EFE6C
:105380000028F7D00146BDE838400420FFF722B8D6
:105390006518FF1F6818FF1F6418FF1F38B52C4CD5
:1053A000237803B138BD01232370FFF7C9FE00281D
:1053B00042D100F0D1F800283BD100F063F9002879
:1053C00034D100F0F5F970BB00F06EFA40BB00F08C
:1053D000E7FA10BB00F060FBE0B900232370EFF3A5
:1053E0000583002BDED1EFF3108172B6194B1868DC
:1053F00028B3194C227812BB45691D600123237024
:105400000DB3AA6101B962B6002545778368984754
:105410002570C7E700F02EF8DFE700F029F8D9E79C
:1054200000F024F8D3E700F01FF8CDE700F01AF8F9
:10543000C7E700F015F8C0E7FFF7FEFDB9E7002960
:10544000B0D162B638BD054B1D600029DCD1DAE76A
:105450007518FF1F6817FF1F6C17FF1F6417FF1FCA
:10546000704700BF704700BF704700BF704700BF64
:10547000704700BF704700BF30B42948294A2A4B03
:105480002A4D6024E121047011701B78284C082BF0
:1054900030D00A2B2748284937D00C2B0CBF352297
:1054A0005D2212232A60236002600B60234B244993
:1054B0001B78244ABBB101230B601360224B2349A4
:1054C0001B78234A012B26D9042B0FD9082B1ED970
:1054D000102B94BF862387230B6013601D4B012282
:1054E0001A7030BC70470B601360E7E784230B60D1
:1054F0001360F3E700F58E200F49083021221323B3
:105500002A60236002600B60D0E73922F7E7852329
:105510000B601360E2E780230B601360DEE700BFDF
:1055200000400740014007404C07FF1F08B0034000
:105530000CB0034008B00B400CB00B407718FF1FB5
:1055400020B0034020B00B404D07FF1F24B00340A4
:1055500024B00B407618FF1F054A064B10781B78C5
:10556000C0B2DBB2984238BF4030C01A704700BFAB
:105570007C18FF1F7D18FF1FF0B4384B1A7912F00A
:10558000300F2CD072B6997D01F0FF0200293DD07A
:1055900062B6334F334938780D78334E1C46C0B26B
:1055A000EDB2431C402BE17928BF0023AB4202F14E
:1055B000FF32C9B21CBFF154184612F0FF02F0D1FD
:1055C0002A4B1B68C2B23A704BB1A84236BFC5F134
:1055D0004005401B40192728C4BF01221A701F49EB
:1055E000CA78D2B2150616D452060DD51B4B1B79BC
:1055F0005B0609D51E4B1F491B6800220A7003B1C8
:105600001A70164B3C22DA70F0BC70474022D979F0
:105610005A7462B6E3E70B791C06E5D5164B174EB4
:105620001C783378E4B2DBB29C420ED0144D01E01A
:10563000A3420AD00133402B28BF00230879E85C3D
:10564000C0B2C871087D0728F2D9DBB203493370B4
:105650000B79180644BF7C23CB70C5E700A0064039
:105660007C18FF1F7D18FF1FC018FF1F7818FF1F31
:105670000419FF1F0019FF1F0819FF1F0119FF1F41
:105680008018FF1F054A064B10781B78C0B2DBB2AA
:10569000984238BF4030C01A704700BF7C19FF1FC6
:1056A0001119FF1FF0B4384B1A7912F0300F2CD0BB
:1056B00072B6997D01F0FF0200293DD062B6334FEA
:1056C000334938780D78334E1C46C0B2EDB2431CD6
:1056D000402BE17928BF0023AB4202F1FF32C9B26F
:1056E0001CBFF154184612F0FF02F0D12A4B1B6880
:1056F000C2B23A704BB1A84236BFC5F14005401B5B
:1057000040192728C4BF01221A701F49CA78D2B293
:10571000150616D452060DD51B4B1B795B0609D511
:105720001E4B1F491B6800220A7003B11A70164BEA
:105730003C22DA70F0BC70474022D9795A7462B6C4
:10574000E3E70B791C06E5D5164B174E1C7833782A
:10575000E4B2DBB29C420ED0144D01E0A3420AD069
:105760000133282B28BF00230879E85CC0B2C87138
:10577000087D0728F2D9DBB2034933700B7918068C
:1057800044BF7C23CB70C5E700B006407C19FF1FE7
:105790001119FF1F3C19FF1F0C19FF1F8019FF1F54
:1057A0001019FF1F8419FF1F7D19FF1F1419FF1FF8
:1057B000054A064B10781B78C0B2DBB2984238BF5E
:1057C0004030C01A704700BF8C19FF1F8D19FF1F92
:1057D00030B42B4B1A7994061FD52A48DA7903780E
:1057E000294901333F2B0978C8BF00238B42D2B22D
:1057F00003D0264CD9B2E2540170254A116861B138
:10580000244A1278D2B2934236BFC2F140029B1AA8
:105810009B18272BC4BF01230B70194AD378DBB226
:10582000180611D45A060DD5154B1B795B0609D500
:10583000194B1A491B6800220A7003B11A70104BE9
:105840002C22DA7030BC704711790906EAD5144968
:1058500010480C780178C9B28C420DD04A1C272A16
:1058600084BF00210A460F4D054C98BFD1B2AA5CF7
:10587000D2B2E2710170D5E76C21D170D2E700BFDE
:1058800000C006408C19FF1F8D19FF1FB819FF1F9C
:105890008819FF1FF919FF1FFC19FF1FF819FF1FB7
:1058A000001AFF1F9019FF1F054A064B10781B783E
:1058B000C0B2DBB2984238BF4030C01A704700BF58
:1058C000081AFF1F091AFF1F30B42B4B1A799406D0
:1058D0001FD52A48DA790378294901333F2B097803
:1058E000C8BF00238B42D2B203D0264CD9B2E254B7
:1058F0000170254A116861B1244A1278D2B29342EC
:1059000036BFC2F140029B1A9B18272BC4BF01234C
:105910000B70194AD378DBB2180611D45A060DD58C
:10592000154B1B795B0609D5194B1A491B680022D8
:105930000A7003B11A70104B2C22DA7030BC704719
:1059400011790906EAD5144910480C780178C9B2D2
:105950008C420DD04A1C272A84BF00210A460F4DD5
:10596000054C98BFD1B2AA5CD2B2E2710170D5E702
:105970006C21D170D2E700BF00D00640081AFF1F8B
:10598000091AFF1F341AFF1F041AFF1F751AFF1F81
:10599000781AFF1F741AFF1F7C1AFF1F0C1AFF1FB3
:1059A000054A064B10781B78C0B2DBB2984238BF6C
:1059B0004030C01A704700BF841AFF1F851AFF1FAE
:1059C00030B42B4B1A7994061FD52A48DA7903781C
:1059D000294901333F2B0978C8BF00238B42D2B23B
:1059E00003D0264CD9B2E2540170254A116861B146
:1059F000244A1278D2B2934236BFC2F140029B1AB7
:105A00009B18272BC4BF01230B70194AD378DBB234
:105A1000180611D45A060DD5154B1B795B0609D50E
:105A2000194B1A491B6800220A7003B11A70104BF7
:105A30002C22DA7030BC704711790906EAD5144976
:105A400010480C780178C9B28C420DD04A1C272A24
:105A500084BF00210A460F4D054C98BFD1B2AA5C05
:105A6000D2B2E2710170D5E76C21D170D2E700BFEC
:105A700000A00E40841AFF1F851AFF1FB01AFF1FD7
:105A8000801AFF1FF11AFF1FF41AFF1FF01AFF1FE1
:105A9000F81AFF1F881AFF1F054A064B10781B785B
:105AA000C0B2DBB2984238BF4030C01A704700BF66
:105AB000001BFF1F011BFF1F30B42B4B1A799406EC
:105AC0001FD52A48DA790378294901333F2B097811
:105AD000C8BF00238B42D2B203D0264CD9B2E254C5
